{
  "_format": "hh-sol-artifact-1",
  "contractName": "HodlOrDie",
  "sourceName": "contracts/HodlOrDie.sol",
  "abi": [
    {
      "inputs": [
        {
          "internalType": "uint256",
          "name": "_entryFeeWei",
          "type": "uint256"
        }
      ],
      "stateMutability": "nonpayable",
      "type": "constructor"
    },
    {
      "anonymous": false,
      "inputs": [
        {
          "indexed": true,
          "internalType": "address",
          "name": "player",
          "type": "address"
        },
        {
          "indexed": true,
          "internalType": "uint256",
          "name": "roundId",
          "type": "uint256"
        },
        {
          "indexed": false,
          "internalType": "uint256",
          "name": "amount",
          "type": "uint256"
        }
      ],
      "name": "Joined",
      "type": "event"
    },
    {
      "anonymous": false,
      "inputs": [
        {
          "indexed": true,
          "internalType": "uint256",
          "name": "roundId",
          "type": "uint256"
        },
        {
          "indexed": true,
          "internalType": "address",
          "name": "winner",
          "type": "address"
        },
        {
          "indexed": false,
          "internalType": "uint256",
          "name": "winnerAmount",
          "type": "uint256"
        },
        {
          "indexed": false,
          "internalType": "uint256",
          "name": "ownerFee",
          "type": "uint256"
        }
      ],
      "name": "RoundFinalized",
      "type": "event"
    },
    {
      "inputs": [],
      "name": "currentRoundFinalized",
      "outputs": [
        {
          "internalType": "bool",
          "name": "",
          "type": "bool"
        }
      ],
      "stateMutability": "view",
      "type": "function"
    },
    {
      "inputs": [],
      "name": "currentRoundId",
      "outputs": [
        {
          "internalType": "uint256",
          "name": "",
          "type": "uint256"
        }
      ],
      "stateMutability": "view",
      "type": "function"
    },
    {
      "inputs": [],
      "name": "currentRoundStart",
      "outputs": [
        {
          "internalType": "uint256",
          "name": "",
          "type": "uint256"
        }
      ],
      "stateMutability": "view",
      "type": "function"
    },
    {
      "inputs": [],
      "name": "entryFee",
      "outputs": [
        {
          "internalType": "uint256",
          "name": "",
          "type": "uint256"
        }
      ],
      "stateMutability": "view",
      "type": "function"
    },
    {
      "inputs": [
        {
          "internalType": "address",
          "name": "winner",
          "type": "address"
        }
      ],
      "name": "finalizeRound",
      "outputs": [],
      "stateMutability": "nonpayable",
      "type": "function"
    },
    {
      "inputs": [],
      "name": "getCurrentRoundInfo",
      "outputs": [
        {
          "internalType": "uint256",
          "name": "id",
          "type": "uint256"
        },
        {
          "internalType": "uint256",
          "name": "pot_",
          "type": "uint256"
        },
        {
          "internalType": "uint256",
          "name": "start",
          "type": "uint256"
        },
        {
          "internalType": "uint256",
          "name": "end",
          "type": "uint256"
        },
        {
          "internalType": "bool",
          "name": "finalized",
          "type": "bool"
        }
      ],
      "stateMutability": "view",
      "type": "function"
    },
    {
      "inputs": [],
      "name": "joinCurrentRound",
      "outputs": [],
      "stateMutability": "payable",
      "type": "function"
    },
    {
      "inputs": [],
      "name": "owner",
      "outputs": [
        {
          "internalType": "address",
          "name": "",
          "type": "address"
        }
      ],
      "stateMutability": "view",
      "type": "function"
    },
    {
      "inputs": [],
      "name": "pot",
      "outputs": [
        {
          "internalType": "uint256",
          "name": "",
          "type": "uint256"
        }
      ],
      "stateMutability": "view",
      "type": "function"
    },
    {
      "stateMutability": "payable",
      "type": "receive"
    }
  ],
  "bytecode": "0x608060405234801561001057600080fd5b50604051610ffd380380610ffd833981810160405281019061003291906100e3565b336000806101000a81548173ffffffffffffffffffffffffffffffffffffffff021916908373ffffffffffffffffffffffffffffffffffffffff1602179055508060028190555060018081905550426004819055506000600560006101000a81548160ff02191690831515021790555050610110565b600080fd5b6000819050919050565b6100c0816100ad565b81146100cb57600080fd5b50565b6000815190506100dd816100b7565b92915050565b6000602082840312156100f9576100f86100a8565b5b6000610107848285016100ce565b91505092915050565b610ede8061011f6000396000f3fe60806040526004361061008a5760003560e01c8063548d29ea11610059578063548d29ea14610179578063747dff42146101835780637edcc128146101b25780638da5cb5b146101dd5780639cbe5efd14610208576100ca565b8063072ea61c146100cf578063222d7e34146100fa5780634a98346f146101255780634ba2363a1461014e576100ca565b366100ca576040517f08c379a00000000000000000000000000000000000000000000000000000000081526004016100c190610809565b60405180910390fd5b600080fd5b3480156100db57600080fd5b506100e4610233565b6040516100f19190610842565b60405180910390f35b34801561010657600080fd5b5061010f610239565b60405161011c9190610842565b60405180910390f35b34801561013157600080fd5b5061014c600480360381019061014791906108c0565b61023f565b005b34801561015a57600080fd5b50610163610635565b6040516101709190610842565b60405180910390f35b61018161063b565b005b34801561018f57600080fd5b5061019861073b565b6040516101a9959493929190610908565b60405180910390f35b3480156101be57600080fd5b506101c761076f565b6040516101d4919061095b565b60405180910390f35b3480156101e957600080fd5b506101f2610782565b6040516101ff9190610985565b60405180910390f35b34801561021457600080fd5b5061021d6107a6565b60405161022a9190610842565b60405180910390f35b60025481565b60045481565b60008054906101000a900473ffffffffffffffffffffffffffffffffffffffff1673ffffffffffffffffffffffffffffffffffffffff163373ffffffffffffffffffffffffffffffffffffffff16146102cd576040517f08c379a00000000000000000000000000000000000000000000000000000000081526004016102c4906109ec565b60405180910390fd5b600560009054906101000a900460ff161561031d576040517f08c379a000000000000000000000000000000000000000000000000000000000815260040161031490610a58565b60405180910390fd5b600073ffffffffffffffffffffffffffffffffffffffff168173ffffffffffffffffffffffffffffffffffffffff160361038c576040517f08c379a000000000000000000000000000000000000000000000000000000000815260040161038390610ac4565b60405180910390fd5b60006003549050600081116103d6576040517f08c379a00000000000000000000000000000000000000000000000000000000081526004016103cd90610b30565b60405180910390fd5b6001600560006101000a81548160ff02191690831515021790555060006003819055506000606460058361040a9190610b7f565b6104149190610bf0565b9050600081836104249190610c21565b905060008473ffffffffffffffffffffffffffffffffffffffff168260405161044c90610c86565b60006040518083038185875af1925050503d8060008114610489576040519150601f19603f3d011682016040523d82523d6000602084013e61048e565b606091505b50509050806104d2576040517f08c379a00000000000000000000000000000000000000000000000000000000081526004016104c990610ce7565b60405180910390fd5b60008060009054906101000a900473ffffffffffffffffffffffffffffffffffffffff1673ffffffffffffffffffffffffffffffffffffffff168460405161051990610c86565b60006040518083038185875af1925050503d8060008114610556576040519150601f19603f3d011682016040523d82523d6000602084013e61055b565b606091505b505090508061059f576040517f08c379a000000000000000000000000000000000000000000000000000000000815260040161059690610d53565b60405180910390fd5b8573ffffffffffffffffffffffffffffffffffffffff166001547fdb68e93745554cbe6cee95fc6e6bc07377f8e68ba1f30d1b2d2f6e1b70285a5085876040516105ea929190610d73565b60405180910390a360018060008282546106049190610d9c565b92505081905550426004819055506000600560006101000a81548160ff021916908315150217905550505050505050565b60035481565b600560009054906101000a900460ff161561068b576040517f08c379a000000000000000000000000000000000000000000000000000000000815260040161068290610e1c565b60405180910390fd5b60025434146106cf576040517f08c379a00000000000000000000000000000000000000000000000000000000081526004016106c690610e88565b60405180910390fd5b34600360008282546106e19190610d9c565b925050819055506001543373ffffffffffffffffffffffffffffffffffffffff167f16a5410c80ce4d4082839ea17ff9fae01b3924da3e586c0e4ba3cdb1c9f7dae2346040516107319190610842565b60405180910390a3565b600080600080600060015494506003549350600454925060009150600560009054906101000a900460ff1690509091929394565b600560009054906101000a900460ff1681565b60008054906101000a900473ffffffffffffffffffffffffffffffffffffffff1681565b60015481565b600082825260208201905092915050565b7f73656e6420766961206a6f696e43757272656e74526f756e6400000000000000600082015250565b60006107f36019836107ac565b91506107fe826107bd565b602082019050919050565b60006020820190508181036000830152610822816107e6565b9050919050565b6000819050919050565b61083c81610829565b82525050565b60006020820190506108576000830184610833565b92915050565b600080fd5b600073ffffffffffffffffffffffffffffffffffffffff82169050919050565b600061088d82610862565b9050919050565b61089d81610882565b81146108a857600080fd5b50565b6000813590506108ba81610894565b92915050565b6000602082840312156108d6576108d561085d565b5b60006108e4848285016108ab565b91505092915050565b60008115159050919050565b610902816108ed565b82525050565b600060a08201905061091d6000830188610833565b61092a6020830187610833565b6109376040830186610833565b6109446060830185610833565b61095160808301846108f9565b9695505050505050565b600060208201905061097060008301846108f9565b92915050565b61097f81610882565b82525050565b600060208201905061099a6000830184610976565b92915050565b7f6e6f74206f776e65720000000000000000000000000000000000000000000000600082015250565b60006109d66009836107ac565b91506109e1826109a0565b602082019050919050565b60006020820190508181036000830152610a05816109c9565b9050919050565b7f616c72656164792066696e616c697a6564000000000000000000000000000000600082015250565b6000610a426011836107ac565b9150610a4d82610a0c565b602082019050919050565b60006020820190508181036000830152610a7181610a35565b9050919050565b7f696e76616c69642077696e6e6572000000000000000000000000000000000000600082015250565b6000610aae600e836107ac565b9150610ab982610a78565b602082019050919050565b60006020820190508181036000830152610add81610aa1565b9050919050565b7f6e6f20706f740000000000000000000000000000000000000000000000000000600082015250565b6000610b1a6006836107ac565b9150610b2582610ae4565b602082019050919050565b60006020820190508181036000830152610b4981610b0d565b9050919050565b7f4e487b7100000000000000000000000000000000000000000000000000000000600052601160045260246000fd5b6000610b8a82610829565b9150610b9583610829565b9250828202610ba381610829565b91508282048414831517610bba57610bb9610b50565b5b5092915050565b7f4e487b7100000000000000000000000000000000000000000000000000000000600052601260045260246000fd5b6000610bfb82610829565b9150610c0683610829565b925082610c1657610c15610bc1565b5b828204905092915050565b6000610c2c82610829565b9150610c3783610829565b9250828203905081811115610c4f57610c4e610b50565b5b92915050565b600081905092915050565b50565b6000610c70600083610c55565b9150610c7b82610c60565b600082019050919050565b6000610c9182610c63565b9150819050919050565b7f77696e6e6572207061796f7574206661696c6564000000000000000000000000600082015250565b6000610cd16014836107ac565b9150610cdc82610c9b565b602082019050919050565b60006020820190508181036000830152610d0081610cc4565b9050919050565b7f6f776e657220666565206661696c656400000000000000000000000000000000600082015250565b6000610d3d6010836107ac565b9150610d4882610d07565b602082019050919050565b60006020820190508181036000830152610d6c81610d30565b9050919050565b6000604082019050610d886000830185610833565b610d956020830184610833565b9392505050565b6000610da782610829565b9150610db283610829565b9250828201905080821115610dca57610dc9610b50565b5b92915050565b7f726f756e642066696e616c697a65640000000000000000000000000000000000600082015250565b6000610e06600f836107ac565b9150610e1182610dd0565b602082019050919050565b60006020820190508181036000830152610e3581610df9565b9050919050565b7f77726f6e6720656e747279206665650000000000000000000000000000000000600082015250565b6000610e72600f836107ac565b9150610e7d82610e3c565b602082019050919050565b60006020820190508181036000830152610ea181610e65565b905091905056fea2646970667358221220428575bf4eef754d613103f758b81c060664d69af3338dcb37bfd881463a02a364736f6c63430008140033",
  "linkReferences": {},
  "deployedLinkReferences": {}
}