{
  "_format": "hh-sol-artifact-1",
  "contractName": "HodlOrDieWeekly",
  "sourceName": "contracts/HodlOrDieWeekly.sol",
  "abi": [
    {
      "inputs": [
        {
          "internalType": "uint256",
          "name": "_entryFee",
          "type": "uint256"
        },
        {
          "internalType": "uint256",
          "name": "_firstRoundEnd",
          "type": "uint256"
        }
      ],
      "stateMutability": "payable",
      "type": "constructor"
    },
    {
      "anonymous": false,
      "inputs": [
        {
          "indexed": true,
          "internalType": "address",
          "name": "to",
          "type": "address"
        },
        {
          "indexed": false,
          "internalType": "uint256",
          "name": "amount",
          "type": "uint256"
        }
      ],
      "name": "FeesWithdrawn",
      "type": "event"
    },
    {
      "anonymous": false,
      "inputs": [
        {
          "indexed": true,
          "internalType": "uint256",
          "name": "roundId",
          "type": "uint256"
        },
        {
          "indexed": true,
          "internalType": "address",
          "name": "player",
          "type": "address"
        },
        {
          "indexed": false,
          "internalType": "uint256",
          "name": "amount",
          "type": "uint256"
        }
      ],
      "name": "Joined",
      "type": "event"
    },
    {
      "anonymous": false,
      "inputs": [
        {
          "indexed": true,
          "internalType": "uint256",
          "name": "roundId",
          "type": "uint256"
        },
        {
          "indexed": false,
          "internalType": "address[]",
          "name": "winners",
          "type": "address[]"
        },
        {
          "indexed": false,
          "internalType": "uint256",
          "name": "prizePool",
          "type": "uint256"
        },
        {
          "indexed": false,
          "internalType": "uint256",
          "name": "fee",
          "type": "uint256"
        }
      ],
      "name": "RoundFinalized",
      "type": "event"
    },
    {
      "anonymous": false,
      "inputs": [
        {
          "indexed": true,
          "internalType": "uint256",
          "name": "roundId",
          "type": "uint256"
        },
        {
          "indexed": false,
          "internalType": "uint256",
          "name": "start",
          "type": "uint256"
        },
        {
          "indexed": false,
          "internalType": "uint256",
          "name": "end",
          "type": "uint256"
        }
      ],
      "name": "RoundStarted",
      "type": "event"
    },
    {
      "inputs": [],
      "name": "collectedFees",
      "outputs": [
        {
          "internalType": "uint256",
          "name": "",
          "type": "uint256"
        }
      ],
      "stateMutability": "view",
      "type": "function"
    },
    {
      "inputs": [],
      "name": "currentRoundId",
      "outputs": [
        {
          "internalType": "uint256",
          "name": "",
          "type": "uint256"
        }
      ],
      "stateMutability": "view",
      "type": "function"
    },
    {
      "inputs": [],
      "name": "entryFee",
      "outputs": [
        {
          "internalType": "uint256",
          "name": "",
          "type": "uint256"
        }
      ],
      "stateMutability": "view",
      "type": "function"
    },
    {
      "inputs": [
        {
          "internalType": "address[]",
          "name": "_winners",
          "type": "address[]"
        }
      ],
      "name": "finalizeCurrentRound",
      "outputs": [],
      "stateMutability": "nonpayable",
      "type": "function"
    },
    {
      "inputs": [],
      "name": "getCurrentRoundInfo",
      "outputs": [
        {
          "internalType": "uint256",
          "name": "id",
          "type": "uint256"
        },
        {
          "internalType": "uint256",
          "name": "pot",
          "type": "uint256"
        },
        {
          "internalType": "uint256",
          "name": "start",
          "type": "uint256"
        },
        {
          "internalType": "uint256",
          "name": "end",
          "type": "uint256"
        },
        {
          "internalType": "bool",
          "name": "finalized",
          "type": "bool"
        }
      ],
      "stateMutability": "view",
      "type": "function"
    },
    {
      "inputs": [],
      "name": "houseFeeBps",
      "outputs": [
        {
          "internalType": "uint256",
          "name": "",
          "type": "uint256"
        }
      ],
      "stateMutability": "view",
      "type": "function"
    },
    {
      "inputs": [],
      "name": "joinCurrentRound",
      "outputs": [],
      "stateMutability": "payable",
      "type": "function"
    },
    {
      "inputs": [],
      "name": "owner",
      "outputs": [
        {
          "internalType": "address",
          "name": "",
          "type": "address"
        }
      ],
      "stateMutability": "view",
      "type": "function"
    },
    {
      "inputs": [
        {
          "internalType": "uint256",
          "name": "",
          "type": "uint256"
        }
      ],
      "name": "rounds",
      "outputs": [
        {
          "internalType": "uint256",
          "name": "totalPot",
          "type": "uint256"
        },
        {
          "internalType": "uint256",
          "name": "startTimestamp",
          "type": "uint256"
        },
        {
          "internalType": "uint256",
          "name": "endTimestamp",
          "type": "uint256"
        },
        {
          "internalType": "bool",
          "name": "finalized",
          "type": "bool"
        }
      ],
      "stateMutability": "view",
      "type": "function"
    },
    {
      "inputs": [
        {
          "internalType": "uint256",
          "name": "_entryFee",
          "type": "uint256"
        }
      ],
      "name": "setEntryFee",
      "outputs": [],
      "stateMutability": "nonpayable",
      "type": "function"
    },
    {
      "inputs": [
        {
          "internalType": "address payable",
          "name": "to",
          "type": "address"
        }
      ],
      "name": "withdrawFees",
      "outputs": [],
      "stateMutability": "nonpayable",
      "type": "function"
    }
  ],
  "bytecode": "0x60806040526101f46002556040516200193b3803806200193b83398181016040528101906200002f91906200017f565b336000806101000a81548173ffffffffffffffffffffffffffffffffffffffff021916908373ffffffffffffffffffffffffffffffffffffffff1602179055508160018190555060016003819055506040518060800160405280600081526020014281526020018281526020016000151581525060046000600354815260200190815260200160002060008201518160000155602082015181600101556040820151816002015560608201518160030160006101000a81548160ff0219169083151502179055509050506003547fa359b664a68acd8839e42112eb50eff3408165e15074fde89ddb58a0db2e691d42836040516200012f929190620001d7565b60405180910390a2505062000204565b600080fd5b6000819050919050565b620001598162000144565b81146200016557600080fd5b50565b60008151905062000179816200014e565b92915050565b600080604083850312156200019957620001986200013f565b5b6000620001a98582860162000168565b9250506020620001bc8582860162000168565b9150509250929050565b620001d18162000144565b82525050565b6000604082019050620001ee6000830185620001c6565b620001fd6020830184620001c6565b9392505050565b61172780620002146000396000f3fe60806040526004361061009c5760003560e01c80638da5cb5b116100645780638da5cb5b1461016e5780639003adfe146101995780639cbe5efd146101c4578063eb770d0c146101ef578063ee59d24014610218578063f955df74146102435761009c565b8063072ea61c146100a1578063164e68de146100cc578063548d29ea146100f5578063747dff42146100ff5780638c65c81f1461012e575b600080fd5b3480156100ad57600080fd5b506100b661026c565b6040516100c39190610c17565b60405180910390f35b3480156100d857600080fd5b506100f360048036038101906100ee9190610c9a565b610272565b005b6100fd610451565b005b34801561010b57600080fd5b50610114610563565b604051610125959493929190610ce2565b60405180910390f35b34801561013a57600080fd5b5061015560048036038101906101509190610d61565b6105b9565b6040516101659493929190610d8e565b60405180910390f35b34801561017a57600080fd5b506101836105f6565b6040516101909190610df4565b60405180910390f35b3480156101a557600080fd5b506101ae61061a565b6040516101bb9190610c17565b60405180910390f35b3480156101d057600080fd5b506101d9610620565b6040516101e69190610c17565b60405180910390f35b3480156101fb57600080fd5b5061021660048036038101906102119190610d61565b610626565b005b34801561022457600080fd5b5061022d6106be565b60405161023a9190610c17565b60405180910390f35b34801561024f57600080fd5b5061026a60048036038101906102659190610e74565b6106c4565b005b60015481565b60008054906101000a900473ffffffffffffffffffffffffffffffffffffffff1673ffffffffffffffffffffffffffffffffffffffff163373ffffffffffffffffffffffffffffffffffffffff1614610300576040517f08c379a00000000000000000000000000000000000000000000000000000000081526004016102f790610f1e565b60405180910390fd5b600060055490506000811161034a576040517f08c379a000000000000000000000000000000000000000000000000000000000815260040161034190610f8a565b60405180910390fd5b600060058190555060008273ffffffffffffffffffffffffffffffffffffffff168260405161037890610fdb565b60006040518083038185875af1925050503d80600081146103b5576040519150601f19603f3d011682016040523d82523d6000602084013e6103ba565b606091505b50509050806103fe576040517f08c379a00000000000000000000000000000000000000000000000000000000081526004016103f59061103c565b60405180910390fd5b8273ffffffffffffffffffffffffffffffffffffffff167fc0819c13be868895eb93e40eaceb96de976442fa1d404e5c55f14bb65a8c489a836040516104449190610c17565b60405180910390a2505050565b60006004600060035481526020019081526020016000209050806002015442106104b0576040517f08c379a00000000000000000000000000000000000000000000000000000000081526004016104a7906110a8565b60405180910390fd5b60015434146104f4576040517f08c379a00000000000000000000000000000000000000000000000000000000081526004016104eb90611114565b60405180910390fd5b348160000160008282546105089190611163565b925050819055503373ffffffffffffffffffffffffffffffffffffffff166003547fd5b030fc17ee555aeea484ceb134047c9d82176003282c85150c3b2552c6ef66346040516105589190610c17565b60405180910390a350565b60008060008060008060046000600354815260200190815260200160002090506003548160000154826001015483600201548460030160009054906101000a900460ff1695509550955095509550509091929394565b60046020528060005260406000206000915090508060000154908060010154908060020154908060030160009054906101000a900460ff16905084565b60008054906101000a900473ffffffffffffffffffffffffffffffffffffffff1681565b60055481565b60035481565b60008054906101000a900473ffffffffffffffffffffffffffffffffffffffff1673ffffffffffffffffffffffffffffffffffffffff163373ffffffffffffffffffffffffffffffffffffffff16146106b4576040517f08c379a00000000000000000000000000000000000000000000000000000000081526004016106ab90610f1e565b60405180910390fd5b8060018190555050565b60025481565b60008054906101000a900473ffffffffffffffffffffffffffffffffffffffff1673ffffffffffffffffffffffffffffffffffffffff163373ffffffffffffffffffffffffffffffffffffffff1614610752576040517f08c379a000000000000000000000000000000000000000000000000000000000815260040161074990610f1e565b60405180910390fd5b60008282905011610798576040517f08c379a000000000000000000000000000000000000000000000000000000000815260040161078f906111e3565b60405180910390fd5b6000600460006003548152602001908152602001600020905080600201544210156107f8576040517f08c379a00000000000000000000000000000000000000000000000000000000081526004016107ef9061124f565b60405180910390fd5b8060030160009054906101000a900460ff161561084a576040517f08c379a0000000000000000000000000000000000000000000000000000000008152600401610841906112bb565b60405180910390fd5b6000816000015411610891576040517f08c379a000000000000000000000000000000000000000000000000000000000815260040161088890611327565b60405180910390fd5b60018160030160006101000a81548160ff021916908315150217905550600061271060025483600001546108c59190611347565b6108cf91906113b8565b905060008183600001546108e391906113e9565b905081600560008282546108f79190611163565b925050819055506000858590508261090f91906113b8565b905060005b86869050811015610a9c57600073ffffffffffffffffffffffffffffffffffffffff1687878381811061094a5761094961141d565b5b905060200201602081019061095f9190611478565b73ffffffffffffffffffffffffffffffffffffffff16036109b5576040517f08c379a00000000000000000000000000000000000000000000000000000000081526004016109ac906114f1565b60405180910390fd5b60008787838181106109ca576109c961141d565b5b90506020020160208101906109df9190611478565b73ffffffffffffffffffffffffffffffffffffffff1683604051610a0290610fdb565b60006040518083038185875af1925050503d8060008114610a3f576040519150601f19603f3d011682016040523d82523d6000602084013e610a44565b606091505b5050905080610a88576040517f08c379a0000000000000000000000000000000000000000000000000000000008152600401610a7f9061155d565b60405180910390fd5b508080610a949061157d565b915050610914565b506003547f86b59358097e41b3be541ba692931b430161a3a0a740f8924ef225df215f2a2a87878587604051610ad59493929190611688565b60405180910390a2610ae5610aed565b505050505050565b600160036000828254610b009190611163565b925050819055506000600460006001600354610b1c91906113e9565b8152602001908152602001600020600201549050600062093a8082610b419190611163565b90506040518060800160405280600081526020014281526020018281526020016000151581525060046000600354815260200190815260200160002060008201518160000155602082015181600101556040820151816002015560608201518160030160006101000a81548160ff0219169083151502179055509050506003547fa359b664a68acd8839e42112eb50eff3408165e15074fde89ddb58a0db2e691d4283604051610bf29291906116c8565b60405180910390a25050565b6000819050919050565b610c1181610bfe565b82525050565b6000602082019050610c2c6000830184610c08565b92915050565b600080fd5b600080fd5b600073ffffffffffffffffffffffffffffffffffffffff82169050919050565b6000610c6782610c3c565b9050919050565b610c7781610c5c565b8114610c8257600080fd5b50565b600081359050610c9481610c6e565b92915050565b600060208284031215610cb057610caf610c32565b5b6000610cbe84828501610c85565b91505092915050565b60008115159050919050565b610cdc81610cc7565b82525050565b600060a082019050610cf76000830188610c08565b610d046020830187610c08565b610d116040830186610c08565b610d1e6060830185610c08565b610d2b6080830184610cd3565b9695505050505050565b610d3e81610bfe565b8114610d4957600080fd5b50565b600081359050610d5b81610d35565b92915050565b600060208284031215610d7757610d76610c32565b5b6000610d8584828501610d4c565b91505092915050565b6000608082019050610da36000830187610c08565b610db06020830186610c08565b610dbd6040830185610c08565b610dca6060830184610cd3565b95945050505050565b6000610dde82610c3c565b9050919050565b610dee81610dd3565b82525050565b6000602082019050610e096000830184610de5565b92915050565b600080fd5b600080fd5b600080fd5b60008083601f840112610e3457610e33610e0f565b5b8235905067ffffffffffffffff811115610e5157610e50610e14565b5b602083019150836020820283011115610e6d57610e6c610e19565b5b9250929050565b60008060208385031215610e8b57610e8a610c32565b5b600083013567ffffffffffffffff811115610ea957610ea8610c37565b5b610eb585828601610e1e565b92509250509250929050565b600082825260208201905092915050565b7f6e6f74206f776e65720000000000000000000000000000000000000000000000600082015250565b6000610f08600983610ec1565b9150610f1382610ed2565b602082019050919050565b60006020820190508181036000830152610f3781610efb565b9050919050565b7f6e6f206665657300000000000000000000000000000000000000000000000000600082015250565b6000610f74600783610ec1565b9150610f7f82610f3e565b602082019050919050565b60006020820190508181036000830152610fa381610f67565b9050919050565b600081905092915050565b50565b6000610fc5600083610faa565b9150610fd082610fb5565b600082019050919050565b6000610fe682610fb8565b9150819050919050565b7f7769746864726177206661696c00000000000000000000000000000000000000600082015250565b6000611026600d83610ec1565b915061103182610ff0565b602082019050919050565b6000602082019050818103600083015261105581611019565b9050919050565b7f726f756e6420656e646564000000000000000000000000000000000000000000600082015250565b6000611092600b83610ec1565b915061109d8261105c565b602082019050919050565b600060208201905081810360008301526110c181611085565b9050919050565b7f77726f6e6720656e747279466565000000000000000000000000000000000000600082015250565b60006110fe600e83610ec1565b9150611109826110c8565b602082019050919050565b6000602082019050818103600083015261112d816110f1565b9050919050565b7f4e487b7100000000000000000000000000000000000000000000000000000000600052601160045260246000fd5b600061116e82610bfe565b915061117983610bfe565b925082820190508082111561119157611190611134565b5b92915050565b7f6e6f2077696e6e65727300000000000000000000000000000000000000000000600082015250565b60006111cd600a83610ec1565b91506111d882611197565b602082019050919050565b600060208201905081810360008301526111fc816111c0565b9050919050565b7f726f756e64206e6f7420656e6465642079657400000000000000000000000000600082015250565b6000611239601383610ec1565b915061124482611203565b602082019050919050565b600060208201905081810360008301526112688161122c565b9050919050565b7f616c72656164792066696e616c697a6564000000000000000000000000000000600082015250565b60006112a5601183610ec1565b91506112b08261126f565b602082019050919050565b600060208201905081810360008301526112d481611298565b9050919050565b7f6e6f20706f740000000000000000000000000000000000000000000000000000600082015250565b6000611311600683610ec1565b915061131c826112db565b602082019050919050565b6000602082019050818103600083015261134081611304565b9050919050565b600061135282610bfe565b915061135d83610bfe565b925082820261136b81610bfe565b9150828204841483151761138257611381611134565b5b5092915050565b7f4e487b7100000000000000000000000000000000000000000000000000000000600052601260045260246000fd5b60006113c382610bfe565b91506113ce83610bfe565b9250826113de576113dd611389565b5b828204905092915050565b60006113f482610bfe565b91506113ff83610bfe565b925082820390508181111561141757611416611134565b5b92915050565b7f4e487b7100000000000000000000000000000000000000000000000000000000600052603260045260246000fd5b61145581610dd3565b811461146057600080fd5b50565b6000813590506114728161144c565b92915050565b60006020828403121561148e5761148d610c32565b5b600061149c84828501611463565b91505092915050565b7f77696e6e6572207a65726f000000000000000000000000000000000000000000600082015250565b60006114db600b83610ec1565b91506114e6826114a5565b602082019050919050565b6000602082019050818103600083015261150a816114ce565b9050919050565b7f7061796f7574206661696c000000000000000000000000000000000000000000600082015250565b6000611547600b83610ec1565b915061155282611511565b602082019050919050565b600060208201905081810360008301526115768161153a565b9050919050565b600061158882610bfe565b91507fffffffffffffffffffffffffffffffffffffffffffffffffffffffffffffffff82036115ba576115b9611134565b5b600182019050919050565b600082825260208201905092915050565b6000819050919050565b6115e981610dd3565b82525050565b60006115fb83836115e0565b60208301905092915050565b60006116166020840184611463565b905092915050565b6000602082019050919050565b600061163783856115c5565b9350611642826115d6565b8060005b8581101561167b576116588284611607565b61166288826115ef565b975061166d8361161e565b925050600181019050611646565b5085925050509392505050565b600060608201905081810360008301526116a381868861162b565b90506116b26020830185610c08565b6116bf6040830184610c08565b95945050505050565b60006040820190506116dd6000830185610c08565b6116ea6020830184610c08565b939250505056fea2646970667358221220c5bce6e608b9b1c6724946eee59a9a511c8a53fefd7b3ff00195fab991c3c13364736f6c63430008140033",
  "linkReferences": {},
  "deployedLinkReferences": {}
}